{
  "address": "0xa0d64A6ab4A9fb4f9E016e582dF22F30d23313eE",
  "abi": [
    {
      "inputs": [
        {
          "internalType": "uint256",
          "name": "_lockTime",
          "type": "uint256"
        },
        {
          "internalType": "address",
          "name": "_dataFeedAddr",
          "type": "address"
        }
      ],
      "stateMutability": "nonpayable",
      "type": "constructor"
    },
    {
      "inputs": [],
      "name": "dataFeed",
      "outputs": [
        {
          "internalType": "contract AggregatorV3Interface",
          "name": "",
          "type": "address"
        }
      ],
      "stateMutability": "view",
      "type": "function"
    },
    {
      "inputs": [],
      "name": "fund",
      "outputs": [],
      "stateMutability": "payable",
      "type": "function"
    },
    {
      "inputs": [
        {
          "internalType": "address",
          "name": "",
          "type": "address"
        }
      ],
      "name": "funderToAmount",
      "outputs": [
        {
          "internalType": "uint256",
          "name": "",
          "type": "uint256"
        }
      ],
      "stateMutability": "view",
      "type": "function"
    },
    {
      "inputs": [],
      "name": "getChainlinkDataFeedLatestAnswer",
      "outputs": [
        {
          "internalType": "int256",
          "name": "",
          "type": "int256"
        }
      ],
      "stateMutability": "view",
      "type": "function"
    },
    {
      "inputs": [],
      "name": "getFund",
      "outputs": [],
      "stateMutability": "nonpayable",
      "type": "function"
    },
    {
      "inputs": [],
      "name": "getFundSuccess",
      "outputs": [
        {
          "internalType": "bool",
          "name": "",
          "type": "bool"
        }
      ],
      "stateMutability": "view",
      "type": "function"
    },
    {
      "inputs": [],
      "name": "owner",
      "outputs": [
        {
          "internalType": "address",
          "name": "",
          "type": "address"
        }
      ],
      "stateMutability": "view",
      "type": "function"
    },
    {
      "inputs": [],
      "name": "refund",
      "outputs": [],
      "stateMutability": "nonpayable",
      "type": "function"
    },
    {
      "inputs": [
        {
          "internalType": "address",
          "name": "_erc20Addr",
          "type": "address"
        }
      ],
      "name": "setErc20Addr",
      "outputs": [],
      "stateMutability": "nonpayable",
      "type": "function"
    },
    {
      "inputs": [
        {
          "internalType": "address",
          "name": "funder",
          "type": "address"
        },
        {
          "internalType": "uint256",
          "name": "amountToUpdate",
          "type": "uint256"
        }
      ],
      "name": "setFunderToAmount",
      "outputs": [],
      "stateMutability": "nonpayable",
      "type": "function"
    },
    {
      "inputs": [
        {
          "internalType": "address",
          "name": "newOwner",
          "type": "address"
        }
      ],
      "name": "transferOwnership",
      "outputs": [],
      "stateMutability": "nonpayable",
      "type": "function"
    }
  ],
  "transactionHash": "0x6563151c9ef4858f97b4185beca6ce8350af3fdad2c751c02666a9bae8ea9605",
  "args": [
    300,
    "0x694AA1769357215DE4FAC081bf1f309aDC325306"
  ],
  "numDeployments": 1,
  "solcInputHash": "47258c8b856015a37319a3e7d4c43cff",
  "bytecode": "0x60806040526000600560146101000a81548160ff02191690831515021790555034801561002b57600080fd5b50604051611681380380611681833981810160405281019061004d919061017d565b80600160006101000a81548173ffffffffffffffffffffffffffffffffffffffff021916908373ffffffffffffffffffffffffffffffffffffffff16021790555033600260006101000a81548173ffffffffffffffffffffffffffffffffffffffff021916908373ffffffffffffffffffffffffffffffffffffffff160217905550426003819055508160048190555050506101bd565b600080fd5b6000819050919050565b6100fc816100e9565b811461010757600080fd5b50565b600081519050610119816100f3565b92915050565b600073ffffffffffffffffffffffffffffffffffffffff82169050919050565b600061014a8261011f565b9050919050565b61015a8161013f565b811461016557600080fd5b50565b60008151905061017781610151565b92915050565b60008060408385031215610194576101936100e4565b5b60006101a28582860161010a565b92505060206101b385828601610168565b9150509250929050565b6114b5806101cc6000396000f3fe60806040526004361061009c5760003560e01c80639e42ff90116100645780639e42ff9014610160578063b60d42881461018b578063bea4dfb514610195578063d39cf006146101c0578063da4658e0146101e9578063f2fde38b146102145761009c565b806313ffff01146100a15780634407e1e8146100ca578063590e1ae3146101075780638da5cb5b1461011e5780638edd6eb614610149575b600080fd5b3480156100ad57600080fd5b506100c860048036038101906100c39190610b7a565b61023d565b005b3480156100d657600080fd5b506100f160048036038101906100ec9190610b7a565b610311565b6040516100fe9190610bc0565b60405180910390f35b34801561011357600080fd5b5061011c610329565b005b34801561012a57600080fd5b5061013361054f565b6040516101409190610bea565b60405180910390f35b34801561015557600080fd5b5061015e610575565b005b34801561016c57600080fd5b5061017561077c565b6040516101829190610c64565b60405180910390f35b6101936107a2565b005b3480156101a157600080fd5b506101aa610888565b6040516101b79190610c98565b60405180910390f35b3480156101cc57600080fd5b506101e760048036038101906101e29190610cdf565b610929565b005b3480156101f557600080fd5b506101fe610a00565b60405161020b9190610d3a565b60405180910390f35b34801561022057600080fd5b5061023b60048036038101906102369190610b7a565b610a13565b005b600260009054906101000a900473ffffffffffffffffffffffffffffffffffffffff1673ffffffffffffffffffffffffffffffffffffffff163373ffffffffffffffffffffffffffffffffffffffff16146102cd576040517f08c379a00000000000000000000000000000000000000000000000000000000081526004016102c490610dd8565b60405180910390fd5b80600560006101000a81548173ffffffffffffffffffffffffffffffffffffffff021916908373ffffffffffffffffffffffffffffffffffffffff16021790555050565b60006020528060005260406000206000915090505481565b6004546003546103399190610e27565b42101561037b576040517f08c379a000000000000000000000000000000000000000000000000000000000815260040161037290610ecd565b60405180910390fd5b600061038647610ae7565b9050678ac7230489e8000081106103d2576040517f08c379a00000000000000000000000000000000000000000000000000000000081526004016103c990610f39565b60405180910390fd5b60008060003373ffffffffffffffffffffffffffffffffffffffff1673ffffffffffffffffffffffffffffffffffffffff16815260200190815260200160002054905060008103610458576040517f08c379a000000000000000000000000000000000000000000000000000000000815260040161044f90610fa5565b60405180910390fd5b60003373ffffffffffffffffffffffffffffffffffffffff168260405161047e90610ff6565b60006040518083038185875af1925050503d80600081146104bb576040519150601f19603f3d011682016040523d82523d6000602084013e6104c0565b606091505b50508091505080610506576040517f08c379a00000000000000000000000000000000000000000000000000000000081526004016104fd90611057565b60405180910390fd5b60008060003373ffffffffffffffffffffffffffffffffffffffff1673ffffffffffffffffffffffffffffffffffffffff16815260200190815260200160002081905550505050565b600260009054906101000a900473ffffffffffffffffffffffffffffffffffffffff1681565b600260009054906101000a900473ffffffffffffffffffffffffffffffffffffffff1673ffffffffffffffffffffffffffffffffffffffff163373ffffffffffffffffffffffffffffffffffffffff1614610605576040517f08c379a00000000000000000000000000000000000000000000000000000000081526004016105fc90610dd8565b60405180910390fd5b600061061047610ae7565b9050678ac7230489e8000081101561065d576040517f08c379a0000000000000000000000000000000000000000000000000000000008152600401610654906110c3565b60405180910390fd5b60045460035461066d9190610e27565b4210156106af576040517f08c379a00000000000000000000000000000000000000000000000000000000081526004016106a690611155565b60405180910390fd5b60003373ffffffffffffffffffffffffffffffffffffffff16476040516106d590610ff6565b60006040518083038185875af1925050503d8060008114610712576040519150601f19603f3d011682016040523d82523d6000602084013e610717565b606091505b5050809150508061075d576040517f08c379a000000000000000000000000000000000000000000000000000000000815260040161075490611057565b60405180910390fd5b6001600560146101000a81548160ff0219169083151502179055505050565b600160009054906101000a900473ffffffffffffffffffffffffffffffffffffffff1681565b64174876e8006107b134610ae7565b10156107f2576040517f08c379a00000000000000000000000000000000000000000000000000000000081526004016107e9906111c1565b60405180910390fd5b6004546003546108029190610e27565b4210610843576040517f08c379a000000000000000000000000000000000000000000000000000000000815260040161083a9061122d565b60405180910390fd5b346000803373ffffffffffffffffffffffffffffffffffffffff1673ffffffffffffffffffffffffffffffffffffffff16815260200190815260200160002081905550565b600080600160009054906101000a900473ffffffffffffffffffffffffffffffffffffffff1673ffffffffffffffffffffffffffffffffffffffff1663feaf968c6040518163ffffffff1660e01b815260040160a060405180830381865afa1580156108f8573d6000803e3d6000fd5b505050506040513d601f19601f8201168201806040525081019061091c91906112d0565b5050509150508091505090565b600560009054906101000a900473ffffffffffffffffffffffffffffffffffffffff1673ffffffffffffffffffffffffffffffffffffffff163373ffffffffffffffffffffffffffffffffffffffff16146109b9576040517f08c379a00000000000000000000000000000000000000000000000000000000081526004016109b0906113bd565b60405180910390fd5b806000808473ffffffffffffffffffffffffffffffffffffffff1673ffffffffffffffffffffffffffffffffffffffff168152602001908152602001600020819055505050565b600560149054906101000a900460ff1681565b600260009054906101000a900473ffffffffffffffffffffffffffffffffffffffff1673ffffffffffffffffffffffffffffffffffffffff163373ffffffffffffffffffffffffffffffffffffffff1614610aa3576040517f08c379a0000000000000000000000000000000000000000000000000000000008152600401610a9a90610dd8565b60405180910390fd5b80600260006101000a81548173ffffffffffffffffffffffffffffffffffffffff021916908373ffffffffffffffffffffffffffffffffffffffff16021790555050565b600080610af2610888565b90506305f5e1008184610b0591906113dd565b610b0f919061144e565b915050919050565b600080fd5b600073ffffffffffffffffffffffffffffffffffffffff82169050919050565b6000610b4782610b1c565b9050919050565b610b5781610b3c565b8114610b6257600080fd5b50565b600081359050610b7481610b4e565b92915050565b600060208284031215610b9057610b8f610b17565b5b6000610b9e84828501610b65565b91505092915050565b6000819050919050565b610bba81610ba7565b82525050565b6000602082019050610bd56000830184610bb1565b92915050565b610be481610b3c565b82525050565b6000602082019050610bff6000830184610bdb565b92915050565b6000819050919050565b6000610c2a610c25610c2084610b1c565b610c05565b610b1c565b9050919050565b6000610c3c82610c0f565b9050919050565b6000610c4e82610c31565b9050919050565b610c5e81610c43565b82525050565b6000602082019050610c796000830184610c55565b92915050565b6000819050919050565b610c9281610c7f565b82525050565b6000602082019050610cad6000830184610c89565b92915050565b610cbc81610ba7565b8114610cc757600080fd5b50565b600081359050610cd981610cb3565b92915050565b60008060408385031215610cf657610cf5610b17565b5b6000610d0485828601610b65565b9250506020610d1585828601610cca565b9150509250929050565b60008115159050919050565b610d3481610d1f565b82525050565b6000602082019050610d4f6000830184610d2b565b92915050565b600082825260208201905092915050565b7f746869732066756e6374696f6e2063616e206f6e6c792062652063616c6c656460008201527f206279206f776e65720000000000000000000000000000000000000000000000602082015250565b6000610dc2602983610d55565b9150610dcd82610d66565b604082019050919050565b60006020820190508181036000830152610df181610db5565b9050919050565b7f4e487b7100000000000000000000000000000000000000000000000000000000600052601160045260246000fd5b6000610e3282610ba7565b9150610e3d83610ba7565b9250828201905080821115610e5557610e54610df8565b5b92915050565b7f77696e646f77206973206e6f7420636c6f7365642c206e6f7420726566756e6460008201527f2100000000000000000000000000000000000000000000000000000000000000602082015250565b6000610eb7602183610d55565b9150610ec282610e5b565b604082019050919050565b60006020820190508181036000830152610ee681610eaa565b9050919050565b7f5461726765742069732072656163686564000000000000000000000000000000600082015250565b6000610f23601183610d55565b9150610f2e82610eed565b602082019050919050565b60006020820190508181036000830152610f5281610f16565b9050919050565b7f7468657265206973206e6f2066756e6420666f7220796f750000000000000000600082015250565b6000610f8f601883610d55565b9150610f9a82610f59565b602082019050919050565b60006020820190508181036000830152610fbe81610f82565b9050919050565b600081905092915050565b50565b6000610fe0600083610fc5565b9150610feb82610fd0565b600082019050919050565b600061100182610fd3565b9150819050919050565b7f7472616e73666572207478206661696c65640000000000000000000000000000600082015250565b6000611041601283610d55565b915061104c8261100b565b602082019050919050565b6000602082019050818103600083015261107081611034565b9050919050565b7f546172676574206973206e6f7420726561636865640000000000000000000000600082015250565b60006110ad601583610d55565b91506110b882611077565b602082019050919050565b600060208201905081810360008301526110dc816110a0565b9050919050565b7f77696e646f77206973206e6f7420636c6f7365642c206e6f742067657466756e60008201527f6421000000000000000000000000000000000000000000000000000000000000602082015250565b600061113f602283610d55565b915061114a826110e3565b604082019050919050565b6000602082019050818103600083015261116e81611132565b9050919050565b7f536e6564206d6f72652045544800000000000000000000000000000000000000600082015250565b60006111ab600d83610d55565b91506111b682611175565b602082019050919050565b600060208201905081810360008301526111da8161119e565b9050919050565b7f77696e646f7720697320636c6f73656421000000000000000000000000000000600082015250565b6000611217601183610d55565b9150611222826111e1565b602082019050919050565b600060208201905081810360008301526112468161120a565b9050919050565b600069ffffffffffffffffffff82169050919050565b61126c8161124d565b811461127757600080fd5b50565b60008151905061128981611263565b92915050565b61129881610c7f565b81146112a357600080fd5b50565b6000815190506112b58161128f565b92915050565b6000815190506112ca81610cb3565b92915050565b600080600080600060a086880312156112ec576112eb610b17565b5b60006112fa8882890161127a565b955050602061130b888289016112a6565b945050604061131c888289016112bb565b935050606061132d888289016112bb565b925050608061133e8882890161127a565b9150509295509295909350565b7f796f7520646f206e6f742068617665207072656d697373696f6e20746f20636160008201527f6c6c20746869732066756e6374696f6e00000000000000000000000000000000602082015250565b60006113a7603083610d55565b91506113b28261134b565b604082019050919050565b600060208201905081810360008301526113d68161139a565b9050919050565b60006113e882610ba7565b91506113f383610ba7565b925082820261140181610ba7565b9150828204841483151761141857611417610df8565b5b5092915050565b7f4e487b7100000000000000000000000000000000000000000000000000000000600052601260045260246000fd5b600061145982610ba7565b915061146483610ba7565b9250826114745761147361141f565b5b82820490509291505056fea2646970667358221220800076967f4a683186622368403819ff11bf971a2d5fa8238e3f392e3e9046ad64736f6c634300081b0033",
  "devdoc": {
    "kind": "dev",
    "methods": {},
    "version": 1
  },
  "userdoc": {
    "kind": "user",
    "methods": {
      "fund()": {
        "notice": "收款"
      },
      "getChainlinkDataFeedLatestAnswer()": {
        "notice": "Returns the latest answer."
      },
      "getFund()": {
        "notice": "在锁定期内，到达目标值，生产商可以提款， <P>"
      },
      "refund()": {
        "notice": "在锁定期内，没有到达目标值，投资人在搜定期以后退款"
      },
      "transferOwnership(address)": {
        "notice": "所有权转移"
      }
    },
    "version": 1
  },
  "storageLayout": {
    "storage": [
      {
        "astId": 53,
        "contract": "contracts/FundMe.sol:FundMe",
        "label": "funderToAmount",
        "offset": 0,
        "slot": "0",
        "type": "t_mapping(t_address,t_uint256)"
      },
      {
        "astId": 63,
        "contract": "contracts/FundMe.sol:FundMe",
        "label": "dataFeed",
        "offset": 0,
        "slot": "1",
        "type": "t_contract(AggregatorV3Interface)45"
      },
      {
        "astId": 72,
        "contract": "contracts/FundMe.sol:FundMe",
        "label": "owner",
        "offset": 0,
        "slot": "2",
        "type": "t_address"
      },
      {
        "astId": 74,
        "contract": "contracts/FundMe.sol:FundMe",
        "label": "deploymentTimestamp",
        "offset": 0,
        "slot": "3",
        "type": "t_uint256"
      },
      {
        "astId": 76,
        "contract": "contracts/FundMe.sol:FundMe",
        "label": "lockTime",
        "offset": 0,
        "slot": "4",
        "type": "t_uint256"
      },
      {
        "astId": 78,
        "contract": "contracts/FundMe.sol:FundMe",
        "label": "erc20Addr",
        "offset": 0,
        "slot": "5",
        "type": "t_address"
      },
      {
        "astId": 81,
        "contract": "contracts/FundMe.sol:FundMe",
        "label": "getFundSuccess",
        "offset": 20,
        "slot": "5",
        "type": "t_bool"
      }
    ],
    "types": {
      "t_address": {
        "encoding": "inplace",
        "label": "address",
        "numberOfBytes": "20"
      },
      "t_bool": {
        "encoding": "inplace",
        "label": "bool",
        "numberOfBytes": "1"
      },
      "t_contract(AggregatorV3Interface)45": {
        "encoding": "inplace",
        "label": "contract AggregatorV3Interface",
        "numberOfBytes": "20"
      },
      "t_mapping(t_address,t_uint256)": {
        "encoding": "mapping",
        "key": "t_address",
        "label": "mapping(address => uint256)",
        "numberOfBytes": "32",
        "value": "t_uint256"
      },
      "t_uint256": {
        "encoding": "inplace",
        "label": "uint256",
        "numberOfBytes": "32"
      }
    }
  }
}